{
  "contractName": "Dragoncontract",
  "abi": [
    {
      "inputs": [],
      "stateMutability": "nonpayable",
      "type": "constructor"
    },
    {
      "anonymous": false,
      "inputs": [
        {
          "indexed": true,
          "internalType": "address",
          "name": "owner",
          "type": "address"
        },
        {
          "indexed": true,
          "internalType": "address",
          "name": "approved",
          "type": "address"
        },
        {
          "indexed": true,
          "internalType": "uint256",
          "name": "tokenId",
          "type": "uint256"
        }
      ],
      "name": "Approval",
      "type": "event"
    },
    {
      "anonymous": false,
      "inputs": [
        {
          "indexed": true,
          "internalType": "address",
          "name": "owner",
          "type": "address"
        },
        {
          "indexed": true,
          "internalType": "address",
          "name": "operator",
          "type": "address"
        },
        {
          "indexed": false,
          "internalType": "bool",
          "name": "approved",
          "type": "bool"
        }
      ],
      "name": "ApprovalForAll",
      "type": "event"
    },
    {
      "anonymous": false,
      "inputs": [
        {
          "indexed": false,
          "internalType": "address",
          "name": "owner",
          "type": "address"
        },
        {
          "indexed": false,
          "internalType": "uint256",
          "name": "dragonId",
          "type": "uint256"
        },
        {
          "indexed": false,
          "internalType": "uint256",
          "name": "genes",
          "type": "uint256"
        },
        {
          "indexed": false,
          "internalType": "uint256",
          "name": "dadId",
          "type": "uint256"
        },
        {
          "indexed": false,
          "internalType": "uint256",
          "name": "momId",
          "type": "uint256"
        }
      ],
      "name": "Birth",
      "type": "event"
    },
    {
      "anonymous": false,
      "inputs": [
        {
          "indexed": true,
          "internalType": "address",
          "name": "previousOwner",
          "type": "address"
        },
        {
          "indexed": true,
          "internalType": "address",
          "name": "newOwner",
          "type": "address"
        }
      ],
      "name": "OwnershipTransferred",
      "type": "event"
    },
    {
      "anonymous": false,
      "inputs": [
        {
          "indexed": true,
          "internalType": "address",
          "name": "from",
          "type": "address"
        },
        {
          "indexed": true,
          "internalType": "address",
          "name": "to",
          "type": "address"
        },
        {
          "indexed": true,
          "internalType": "uint256",
          "name": "tokenId",
          "type": "uint256"
        }
      ],
      "name": "Transfer",
      "type": "event"
    },
    {
      "inputs": [],
      "name": "gen0CreationLimit",
      "outputs": [
        {
          "internalType": "uint256",
          "name": "",
          "type": "uint256"
        }
      ],
      "stateMutability": "view",
      "type": "function"
    },
    {
      "inputs": [],
      "name": "gen0Total",
      "outputs": [
        {
          "internalType": "uint256",
          "name": "",
          "type": "uint256"
        }
      ],
      "stateMutability": "view",
      "type": "function"
    },
    {
      "inputs": [],
      "name": "owner",
      "outputs": [
        {
          "internalType": "address",
          "name": "",
          "type": "address"
        }
      ],
      "stateMutability": "view",
      "type": "function"
    },
    {
      "inputs": [],
      "name": "renounceOwnership",
      "outputs": [],
      "stateMutability": "nonpayable",
      "type": "function"
    },
    {
      "inputs": [
        {
          "internalType": "address",
          "name": "newOwner",
          "type": "address"
        }
      ],
      "name": "transferOwnership",
      "outputs": [],
      "stateMutability": "nonpayable",
      "type": "function"
    },
    {
      "inputs": [
        {
          "internalType": "uint256",
          "name": "_dadId",
          "type": "uint256"
        },
        {
          "internalType": "uint256",
          "name": "_momId",
          "type": "uint256"
        }
      ],
      "name": "breed",
      "outputs": [],
      "stateMutability": "nonpayable",
      "type": "function"
    },
    {
      "inputs": [
        {
          "internalType": "bytes4",
          "name": "_interfaceId",
          "type": "bytes4"
        }
      ],
      "name": "supportsInterface",
      "outputs": [
        {
          "internalType": "bool",
          "name": "",
          "type": "bool"
        }
      ],
      "stateMutability": "pure",
      "type": "function"
    },
    {
      "inputs": [
        {
          "internalType": "uint256",
          "name": "_tokenId",
          "type": "uint256"
        }
      ],
      "name": "getDragon",
      "outputs": [
        {
          "internalType": "uint256",
          "name": "genes",
          "type": "uint256"
        },
        {
          "internalType": "uint256",
          "name": "birthTime",
          "type": "uint256"
        },
        {
          "internalType": "uint256",
          "name": "dadId",
          "type": "uint256"
        },
        {
          "internalType": "uint256",
          "name": "momId",
          "type": "uint256"
        },
        {
          "internalType": "uint256",
          "name": "generation",
          "type": "uint256"
        },
        {
          "internalType": "address",
          "name": "owner",
          "type": "address"
        }
      ],
      "stateMutability": "view",
      "type": "function"
    },
    {
      "inputs": [],
      "name": "allOwnedDragons",
      "outputs": [
        {
          "internalType": "uint256[]",
          "name": "",
          "type": "uint256[]"
        }
      ],
      "stateMutability": "view",
      "type": "function"
    },
    {
      "inputs": [
        {
          "internalType": "uint256",
          "name": "_genes",
          "type": "uint256"
        }
      ],
      "name": "createDragonGen0",
      "outputs": [],
      "stateMutability": "payable",
      "type": "function"
    },
    {
      "inputs": [],
      "name": "name",
      "outputs": [
        {
          "internalType": "string",
          "name": "tokenName",
          "type": "string"
        }
      ],
      "stateMutability": "pure",
      "type": "function"
    },
    {
      "inputs": [],
      "name": "symbol",
      "outputs": [
        {
          "internalType": "string",
          "name": "tokenSymbol",
          "type": "string"
        }
      ],
      "stateMutability": "pure",
      "type": "function"
    },
    {
      "inputs": [
        {
          "internalType": "address",
          "name": "_owner",
          "type": "address"
        }
      ],
      "name": "balanceOf",
      "outputs": [
        {
          "internalType": "uint256",
          "name": "balance",
          "type": "uint256"
        }
      ],
      "stateMutability": "view",
      "type": "function"
    },
    {
      "inputs": [],
      "name": "totalSupply",
      "outputs": [
        {
          "internalType": "uint256",
          "name": "total",
          "type": "uint256"
        }
      ],
      "stateMutability": "view",
      "type": "function"
    },
    {
      "inputs": [
        {
          "internalType": "uint256",
          "name": "_tokenId",
          "type": "uint256"
        }
      ],
      "name": "ownerOf",
      "outputs": [
        {
          "internalType": "address",
          "name": "owner",
          "type": "address"
        }
      ],
      "stateMutability": "view",
      "type": "function"
    },
    {
      "inputs": [
        {
          "internalType": "address",
          "name": "_to",
          "type": "address"
        },
        {
          "internalType": "uint256",
          "name": "_tokenId",
          "type": "uint256"
        }
      ],
      "name": "transfer",
      "outputs": [],
      "stateMutability": "nonpayable",
      "type": "function"
    },
    {
      "inputs": [
        {
          "internalType": "address",
          "name": "_approved",
          "type": "address"
        },
        {
          "internalType": "uint256",
          "name": "_tokenId",
          "type": "uint256"
        }
      ],
      "name": "approve",
      "outputs": [],
      "stateMutability": "nonpayable",
      "type": "function"
    },
    {
      "inputs": [
        {
          "internalType": "address",
          "name": "_operator",
          "type": "address"
        },
        {
          "internalType": "bool",
          "name": "_approved",
          "type": "bool"
        }
      ],
      "name": "setApprovalForAll",
      "outputs": [],
      "stateMutability": "nonpayable",
      "type": "function"
    },
    {
      "inputs": [
        {
          "internalType": "uint256",
          "name": "_tokenId",
          "type": "uint256"
        }
      ],
      "name": "getApproved",
      "outputs": [
        {
          "internalType": "address",
          "name": "",
          "type": "address"
        }
      ],
      "stateMutability": "view",
      "type": "function"
    },
    {
      "inputs": [
        {
          "internalType": "address",
          "name": "_owner",
          "type": "address"
        },
        {
          "internalType": "address",
          "name": "_operator",
          "type": "address"
        }
      ],
      "name": "isApprovedForAll",
      "outputs": [
        {
          "internalType": "bool",
          "name": "",
          "type": "bool"
        }
      ],
      "stateMutability": "view",
      "type": "function"
    },
    {
      "inputs": [
        {
          "internalType": "address",
          "name": "_from",
          "type": "address"
        },
        {
          "internalType": "address",
          "name": "_to",
          "type": "address"
        },
        {
          "internalType": "uint256",
          "name": "_tokenId",
          "type": "uint256"
        }
      ],
      "name": "safeTransferFrom",
      "outputs": [],
      "stateMutability": "nonpayable",
      "type": "function"
    },
    {
      "inputs": [
        {
          "internalType": "address",
          "name": "_from",
          "type": "address"
        },
        {
          "internalType": "address",
          "name": "_to",
          "type": "address"
        },
        {
          "internalType": "uint256",
          "name": "_tokenId",
          "type": "uint256"
        },
        {
          "internalType": "bytes",
          "name": "_data",
          "type": "bytes"
        }
      ],
      "name": "safeTransferFrom",
      "outputs": [],
      "stateMutability": "nonpayable",
      "type": "function"
    },
    {
      "inputs": [
        {
          "internalType": "address",
          "name": "_from",
          "type": "address"
        },
        {
          "internalType": "address",
          "name": "_to",
          "type": "address"
        },
        {
          "internalType": "uint256",
          "name": "_tokenId",
          "type": "uint256"
        }
      ],
      "name": "transferFrom",
      "outputs": [],
      "stateMutability": "nonpayable",
      "type": "function"
    },
    {
      "inputs": [
        {
          "internalType": "address",
          "name": "_claimant",
          "type": "address"
        },
        {
          "internalType": "uint256",
          "name": "_tokenId",
          "type": "uint256"
        }
      ],
      "name": "_owns",
      "outputs": [
        {
          "internalType": "bool",
          "name": "",
          "type": "bool"
        }
      ],
      "stateMutability": "view",
      "type": "function"
    }
  ],
  "bytecode": "0x60806040523480156200001157600080fd5b5062000032620000266200007060201b60201c565b6200007860201b60201c565b620000697fffffffffffffffffffffffffffffffffffffffffffffffffffffffffffffffff6000806000806200013c60201b60201c565b5062000644565b600033905090565b60008060009054906101000a900473ffffffffffffffffffffffffffffffffffffffff169050816000806101000a81548173ffffffffffffffffffffffffffffffffffffffff021916908373ffffffffffffffffffffffffffffffffffffffff1602179055508173ffffffffffffffffffffffffffffffffffffffff168173ffffffffffffffffffffffffffffffffffffffff167f8be0079c531659141344cd1fd0a4f28419497f9722a3daafe3b4186f6b6457e060405160405180910390a35050565b6000806040518060a001604052808881526020014267ffffffffffffffff1681526020018763ffffffff1681526020018663ffffffff1681526020018561ffff16815250905060018190806001815401808255809150506001900390600052602060002090600202016000909190919091506000820151816000015560208201518160010160006101000a81548167ffffffffffffffff021916908367ffffffffffffffff16021790555060408201518160010160086101000a81548163ffffffff021916908363ffffffff160217905550606082015181600101600c6101000a81548163ffffffff021916908363ffffffff16021790555060808201518160010160106101000a81548161ffff021916908361ffff16021790555050506000600180805490506200026f91906200051f565b90507f0a5311bd2a6608f08a180df2ee7c5946819a649b204b554bb8e39825b2c50ad584828a898b604051620002aa959493929190620004c2565b60405180910390a1620002c660008583620002d460201b60201c565b809250505095945050505050565b600360008373ffffffffffffffffffffffffffffffffffffffff1673ffffffffffffffffffffffffffffffffffffffff16815260200190815260200160002060008154809291906200032690620005c7565b9190505550816002600083815260200190815260200160002060006101000a81548173ffffffffffffffffffffffffffffffffffffffff021916908373ffffffffffffffffffffffffffffffffffffffff160217905550600073ffffffffffffffffffffffffffffffffffffffff168373ffffffffffffffffffffffffffffffffffffffff16146200044057600360008473ffffffffffffffffffffffffffffffffffffffff1673ffffffffffffffffffffffffffffffffffffffff1681526020019081526020016000206000815480929190620004049062000598565b91905055506004600082815260200190815260200160002060006101000a81549073ffffffffffffffffffffffffffffffffffffffff02191690555b808273ffffffffffffffffffffffffffffffffffffffff168473ffffffffffffffffffffffffffffffffffffffff167fddf252ad1be2c89b69c2b068fc378daa952ba7f163c4a11628f55a4df523b3ef60405160405180910390a4505050565b620004ab816200055a565b82525050565b620004bc816200058e565b82525050565b600060a082019050620004d96000830188620004a0565b620004e86020830187620004b1565b620004f76040830186620004b1565b620005066060830185620004b1565b620005156080830184620004b1565b9695505050505050565b60006200052c826200058e565b915062000539836200058e565b9250828210156200054f576200054e62000615565b5b828203905092915050565b600062000567826200056e565b9050919050565b600073ffffffffffffffffffffffffffffffffffffffff82169050919050565b6000819050919050565b6000620005a5826200058e565b91506000821415620005bc57620005bb62000615565b5b600182039050919050565b6000620005d4826200058e565b91507fffffffffffffffffffffffffffffffffffffffffffffffffffffffffffffffff8214156200060a576200060962000615565b5b600182019050919050565b7f4e487b7100000000000000000000000000000000000000000000000000000000600052601160045260246000fd5b61323380620006546000396000f3fe60806040526004361061014b5760003560e01c80638da5cb5b116100b6578063d72cfb8c1161006f578063d72cfb8c1461046f578063d9ecad7b1461049a578063e0bb933b146104c3578063e21fd9fc14610505578063e985e9c514610542578063f2fde38b1461057f5761014b565b80638da5cb5b1461038257806395d89b41146103ad5780639c542e1c146103d8578063a22cb465146103f4578063a9059cbb1461041d578063b88d4fde146104465761014b565b806323b872dd1161010857806323b872dd14610274578063404d0e3e1461029d57806342842e0e146102c85780636352211e146102f157806370a082311461032e578063715018a61461036b5761014b565b806301ffc9a71461015057806306fdde031461018d578063081812fc146101b8578063095ea7b3146101f557806318160ddd1461021e5780631e19fa3314610249575b600080fd5b34801561015c57600080fd5b5061017760048036038101906101729190612299565b6105a8565b604051610184919061274a565b60405180910390f35b34801561019957600080fd5b506101a2610648565b6040516101af9190612765565b60405180910390f35b3480156101c457600080fd5b506101df60048036038101906101da91906122f3565b610685565b6040516101ec919061266e565b60405180910390f35b34801561020157600080fd5b5061021c60048036038101906102179190612259565b610709565b005b34801561022a57600080fd5b506102336108c7565b6040516102409190612947565b60405180910390f35b34801561025557600080fd5b5061025e6108d4565b60405161026b9190612947565b60405180910390f35b34801561028057600080fd5b5061029b60048036038101906102969190612143565b6108da565b005b3480156102a957600080fd5b506102b26108ff565b6040516102bf9190612947565b60405180910390f35b3480156102d457600080fd5b506102ef60048036038101906102ea9190612143565b610904565b005b3480156102fd57600080fd5b50610318600480360381019061031391906122f3565b610924565b604051610325919061266e565b60405180910390f35b34801561033a57600080fd5b50610355600480360381019061035091906120d6565b6109a8565b6040516103629190612947565b60405180910390f35b34801561037757600080fd5b506103806109f1565b005b34801561038e57600080fd5b50610397610a79565b6040516103a4919061266e565b60405180910390f35b3480156103b957600080fd5b506103c2610aa2565b6040516103cf9190612765565b60405180910390f35b6103f260048036038101906103ed91906122f3565b610adf565b005b34801561040057600080fd5b5061041b60048036038101906104169190612219565b610c85565b005b34801561042957600080fd5b50610444600480360381019061043f9190612259565b610df1565b005b34801561045257600080fd5b5061046d60048036038101906104689190612196565b610f28565b005b34801561047b57600080fd5b50610484610f4f565b6040516104919190612728565b60405180910390f35b3480156104a657600080fd5b506104c160048036038101906104bc9190612320565b6110a0565b005b3480156104cf57600080fd5b506104ea60048036038101906104e591906122f3565b61121a565b6040516104fc96959493929190612962565b60405180910390f35b34801561051157600080fd5b5061052c60048036038101906105279190612259565b6113d9565b604051610539919061274a565b60405180910390f35b34801561054e57600080fd5b5061056960048036038101906105649190612103565b611445565b604051610576919061274a565b60405180910390f35b34801561058b57600080fd5b506105a660048036038101906105a191906120d6565b6114d9565b005b60006380ac58cd60e01b7bffffffffffffffffffffffffffffffffffffffffffffffffffffffff1916827bffffffffffffffffffffffffffffffffffffffffffffffffffffffff1916148061064157506301ffc9a760e01b7bffffffffffffffffffffffffffffffffffffffffffffffffffffffff1916827bffffffffffffffffffffffffffffffffffffffffffffffffffffffff1916145b9050919050565b60606040518060400160405280600981526020017f4d79447261676f6e730000000000000000000000000000000000000000000000815250905090565b600060018054905082106106ce576040517f08c379a00000000000000000000000000000000000000000000000000000000081526004016106c590612847565b60405180910390fd5b6004600083815260200190815260200160002060009054906101000a900473ffffffffffffffffffffffffffffffffffffffff169050919050565b61071333826113d9565b806107d75750600560006002600084815260200190815260200160002060009054906101000a900473ffffffffffffffffffffffffffffffffffffffff1673ffffffffffffffffffffffffffffffffffffffff1673ffffffffffffffffffffffffffffffffffffffff16815260200190815260200160002060003373ffffffffffffffffffffffffffffffffffffffff1673ffffffffffffffffffffffffffffffffffffffff16815260200190815260200160002060009054906101000a900460ff165b610816576040517f08c379a000000000000000000000000000000000000000000000000000000000815260040161080d90612867565b60405180910390fd5b816004600083815260200190815260200160002060006101000a81548173ffffffffffffffffffffffffffffffffffffffff021916908373ffffffffffffffffffffffffffffffffffffffff160217905550808273ffffffffffffffffffffffffffffffffffffffff163373ffffffffffffffffffffffffffffffffffffffff167f8c5be1e5ebec7d5bd14f71427d1e84f3dd0314c0f7b2291e5b200ac8c7c3b92560405160405180910390a45050565b6000600180549050905090565b60065481565b6108e6338484846115d1565b6108ef57600080fd5b6108fa83838361172d565b505050565b600581565b61091f83838360405180602001604052806000815250610f28565b505050565b6000600180549050821061096d576040517f08c379a000000000000000000000000000000000000000000000000000000000815260040161096490612847565b60405180910390fd5b6002600083815260200190815260200160002060009054906101000a900473ffffffffffffffffffffffffffffffffffffffff169050919050565b6000600360008373ffffffffffffffffffffffffffffffffffffffff1673ffffffffffffffffffffffffffffffffffffffff168152602001908152602001600020549050919050565b6109f96118f4565b73ffffffffffffffffffffffffffffffffffffffff16610a17610a79565b73ffffffffffffffffffffffffffffffffffffffff1614610a6d576040517f08c379a0000000000000000000000000000000000000000000000000000000008152600401610a64906128c7565b60405180910390fd5b610a7760006118fc565b565b60008060009054906101000a900473ffffffffffffffffffffffffffffffffffffffff16905090565b60606040518060400160405280600281526020017f4d44000000000000000000000000000000000000000000000000000000000000815250905090565b6005600360003373ffffffffffffffffffffffffffffffffffffffff1673ffffffffffffffffffffffffffffffffffffffff1681526020019081526020016000205410610b61576040517f08c379a0000000000000000000000000000000000000000000000000000000008152600401610b5890612927565b60405180910390fd5b3466b1a2bc2ec5000014610baa576040517f08c379a0000000000000000000000000000000000000000000000000000000008152600401610ba190612887565b60405180910390fd5b6005600360003373ffffffffffffffffffffffffffffffffffffffff1673ffffffffffffffffffffffffffffffffffffffff168152602001908152602001600020541015610c825760066000815480929190610c0590612cfe565b9190505550610c19816000806000336119c0565b5060008054906101000a900473ffffffffffffffffffffffffffffffffffffffff1673ffffffffffffffffffffffffffffffffffffffff166108fc349081150290604051600060405180830381858888f19350505050158015610c80573d6000803e3d6000fd5b505b50565b3373ffffffffffffffffffffffffffffffffffffffff168273ffffffffffffffffffffffffffffffffffffffff161415610cf4576040517f08c379a0000000000000000000000000000000000000000000000000000000008152600401610ceb906127c7565b60405180910390fd5b80600560003373ffffffffffffffffffffffffffffffffffffffff1673ffffffffffffffffffffffffffffffffffffffff16815260200190815260200160002060008473ffffffffffffffffffffffffffffffffffffffff1673ffffffffffffffffffffffffffffffffffffffff16815260200190815260200160002060006101000a81548160ff0219169083151502179055508173ffffffffffffffffffffffffffffffffffffffff163373ffffffffffffffffffffffffffffffffffffffff167f17307eab39ab6107e8899845ad3d59bd9653f200f220920489ca2b5937696c3183604051610de5919061274a565b60405180910390a35050565b600073ffffffffffffffffffffffffffffffffffffffff168273ffffffffffffffffffffffffffffffffffffffff161415610e61576040517f08c379a0000000000000000000000000000000000000000000000000000000008152600401610e58906127e7565b60405180910390fd5b3073ffffffffffffffffffffffffffffffffffffffff168273ffffffffffffffffffffffffffffffffffffffff161415610ed0576040517f08c379a0000000000000000000000000000000000000000000000000000000008152600401610ec790612807565b60405180910390fd5b610eda33826113d9565b610f19576040517f08c379a0000000000000000000000000000000000000000000000000000000008152600401610f1090612787565b60405180910390fd5b610f2433838361172d565b5050565b610f34338585856115d1565b610f3d57600080fd5b610f4984848484611b4c565b50505050565b60606000600360003373ffffffffffffffffffffffffffffffffffffffff1673ffffffffffffffffffffffffffffffffffffffff1681526020019081526020016000205467ffffffffffffffff811115610fac57610fab612e05565b5b604051908082528060200260200182016040528015610fda5781602001602082028036833780820191505090505b5090506000805b600180549050811015611097573373ffffffffffffffffffffffffffffffffffffffff166002600083815260200190815260200160002060009054906101000a900473ffffffffffffffffffffffffffffffffffffffff1673ffffffffffffffffffffffffffffffffffffffff161415611084578083838151811061106957611068612dd6565b5b602002602001018181525050818061108090612cfe565b9250505b808061108f90612cfe565b915050610fe1565b50819250505090565b6110aa33836113d9565b6110e9576040517f08c379a00000000000000000000000000000000000000000000000000000000081526004016110e0906128a7565b60405180910390fd5b6110f333826113d9565b611132576040517f08c379a0000000000000000000000000000000000000000000000000000000008152600401611129906128e7565b60405180910390fd5b60006111886001848154811061114b5761114a612dd6565b5b9060005260206000209060020201600001546001848154811061117157611170612dd6565b5b906000526020600020906002020160000154611ba8565b90506000611204600185815481106111a3576111a2612dd6565b5b906000526020600020906002020160010160109054906101000a900461ffff1661ffff16600185815481106111db576111da612dd6565b5b906000526020600020906002020160010160109054906101000a900461ffff1661ffff16611e09565b905061121382858584336119c0565b5050505050565b600080600080600080600180549050871061126a576040517f08c379a000000000000000000000000000000000000000000000000000000000815260040161126190612847565b60405180910390fd5b6001878154811061127e5761127d612dd6565b5b906000526020600020906002020160000154600188815481106112a4576112a3612dd6565b5b906000526020600020906002020160010160009054906101000a900467ffffffffffffffff16600189815481106112de576112dd612dd6565b5b906000526020600020906002020160010160089054906101000a900463ffffffff1660018a8154811061131457611313612dd6565b5b9060005260206000209060020201600101600c9054906101000a900463ffffffff1660018b8154811061134a57611349612dd6565b5b906000526020600020906002020160010160109054906101000a900461ffff16600260008d815260200190815260200160002060009054906101000a900473ffffffffffffffffffffffffffffffffffffffff168467ffffffffffffffff1694508363ffffffff1693508263ffffffff1692508161ffff16915095509550955095509550955091939550919395565b60006002600083815260200190815260200160002060009054906101000a900473ffffffffffffffffffffffffffffffffffffffff1673ffffffffffffffffffffffffffffffffffffffff168373ffffffffffffffffffffffffffffffffffffffff1614905092915050565b6000600560008473ffffffffffffffffffffffffffffffffffffffff1673ffffffffffffffffffffffffffffffffffffffff16815260200190815260200160002060008373ffffffffffffffffffffffffffffffffffffffff1673ffffffffffffffffffffffffffffffffffffffff16815260200190815260200160002060009054906101000a900460ff16905092915050565b6114e16118f4565b73ffffffffffffffffffffffffffffffffffffffff166114ff610a79565b73ffffffffffffffffffffffffffffffffffffffff1614611555576040517f08c379a000000000000000000000000000000000000000000000000000000000815260040161154c906128c7565b60405180910390fd5b600073ffffffffffffffffffffffffffffffffffffffff168173ffffffffffffffffffffffffffffffffffffffff1614156115c5576040517f08c379a00000000000000000000000000000000000000000000000000000000081526004016115bc906127a7565b60405180910390fd5b6115ce816118fc565b50565b60008073ffffffffffffffffffffffffffffffffffffffff168373ffffffffffffffffffffffffffffffffffffffff161415611642576040517f08c379a0000000000000000000000000000000000000000000000000000000008152600401611639906127e7565b60405180910390fd5b6001805490508210611689576040517f08c379a000000000000000000000000000000000000000000000000000000000815260040161168090612847565b60405180910390fd5b61169384836113d9565b6116d2576040517f08c379a00000000000000000000000000000000000000000000000000000000081526004016116c990612827565b60405180910390fd5b8373ffffffffffffffffffffffffffffffffffffffff168573ffffffffffffffffffffffffffffffffffffffff16148061171257506117118583611e3b565b5b8061172357506117228486611445565b5b9050949350505050565b600360008373ffffffffffffffffffffffffffffffffffffffff1673ffffffffffffffffffffffffffffffffffffffff168152602001908152602001600020600081548092919061177d90612cfe565b9190505550816002600083815260200190815260200160002060006101000a81548173ffffffffffffffffffffffffffffffffffffffff021916908373ffffffffffffffffffffffffffffffffffffffff160217905550600073ffffffffffffffffffffffffffffffffffffffff168373ffffffffffffffffffffffffffffffffffffffff161461189457600360008473ffffffffffffffffffffffffffffffffffffffff1673ffffffffffffffffffffffffffffffffffffffff168152602001908152602001600020600081548092919061185890612ca3565b91905055506004600082815260200190815260200160002060006101000a81549073ffffffffffffffffffffffffffffffffffffffff02191690555b808273ffffffffffffffffffffffffffffffffffffffff168473ffffffffffffffffffffffffffffffffffffffff167fddf252ad1be2c89b69c2b068fc378daa952ba7f163c4a11628f55a4df523b3ef60405160405180910390a4505050565b600033905090565b60008060009054906101000a900473ffffffffffffffffffffffffffffffffffffffff169050816000806101000a81548173ffffffffffffffffffffffffffffffffffffffff021916908373ffffffffffffffffffffffffffffffffffffffff1602179055508173ffffffffffffffffffffffffffffffffffffffff168173ffffffffffffffffffffffffffffffffffffffff167f8be0079c531659141344cd1fd0a4f28419497f9722a3daafe3b4186f6b6457e060405160405180910390a35050565b6000806040518060a001604052808881526020014267ffffffffffffffff1681526020018763ffffffff1681526020018663ffffffff1681526020018561ffff16815250905060018190806001815401808255809150506001900390600052602060002090600202016000909190919091506000820151816000015560208201518160010160006101000a81548167ffffffffffffffff021916908367ffffffffffffffff16021790555060408201518160010160086101000a81548163ffffffff021916908363ffffffff160217905550606082015181600101600c6101000a81548163ffffffff021916908363ffffffff16021790555060808201518160010160106101000a81548161ffff021916908361ffff1602179055505050600060018080549050611af19190612bac565b90507f0a5311bd2a6608f08a180df2ee7c5946819a649b204b554bb8e39825b2c50ad584828a898b604051611b2a9594939291906126d5565b60405180910390a1611b3e6000858361172d565b809250505095945050505050565b611b5784848461172d565b611b6384848484611ea7565b611ba2576040517f08c379a0000000000000000000000000000000000000000000000000000000008152600401611b9990612907565b60405180910390fd5b50505050565b6000611bb2611fda565b600061010042611bc29190612d47565b90506000600842611bd39190612d47565b905060006001600742611be69190612d47565b611bf09190612a8a565b905060006001600542611c039190612d47565b611c0d9190612a8a565b90506000600a605242611c209190612d47565b611c2a9190612a8a565b905060008060079050600191505b60808211611cdc576000828860ff16161415611c655760648b81611c5f57611c5e612da7565b5b06611c78565b60648a81611c7657611c75612da7565b5b065b888260ff1660088110611c8e57611c8d612dd6565b5b60200201818152505060648a81611ca857611ca7612da7565b5b04995060648b81611cbc57611cbb612da7565b5b049a50808060019003915050600282611cd59190612b17565b9150611c38565b60048660ff161415611d275783600a86611cf69190612b71565b611d009190612ae0565b60ff16888760ff1660088110611d1957611d18612dd6565b5b602002018181525050611d98565b60078660ff161415611d73576001600a85611d429190612b71565b611d4c9190612ae0565b60ff16888760ff1660088110611d6557611d64612dd6565b5b602002018181525050611d97565b8260ff16888760ff1660088110611d8d57611d8c612dd6565b5b6020020181815250505b5b60008092505b6008831015611df757888360088110611dba57611db9612dd6565b5b602002015181611dca9190612a8a565b905060078314611de457606481611de19190612b17565b90505b8280611def90612cfe565b935050611d9e565b80995050505050505050505092915050565b600081831015611e2557600182611e209190612a8a565b611e33565b600183611e329190612a8a565b5b905092915050565b60006004600083815260200190815260200160002060009054906101000a900473ffffffffffffffffffffffffffffffffffffffff1673ffffffffffffffffffffffffffffffffffffffff168373ffffffffffffffffffffffffffffffffffffffff1614905092915050565b6000611eb284611fc1565b611ebf5760019050611fb9565b60008473ffffffffffffffffffffffffffffffffffffffff1663150b7a02338887876040518563ffffffff1660e01b8152600401611f009493929190612689565b602060405180830381600087803b158015611f1a57600080fd5b505af1158015611f2e573d6000803e3d6000fd5b505050506040513d601f19601f82011682018060405250810190611f5291906122c6565b90507f150b7a023d4804d13e8c85fb27262cb750cf6ba9f9dd3bb30d90f482ceeb4b1f7bffffffffffffffffffffffffffffffffffffffffffffffffffffffff1916817bffffffffffffffffffffffffffffffffffffffffffffffffffffffff1916149150505b949350505050565b600080823b905060008163ffffffff1611915050919050565b604051806101000160405280600890602082028036833780820191505090505090565b600061201061200b846129e8565b6129c3565b90508281526020810184848401111561202c5761202b612e39565b5b612037848285612c61565b509392505050565b60008135905061204e816131a1565b92915050565b600081359050612063816131b8565b92915050565b600081359050612078816131cf565b92915050565b60008151905061208d816131cf565b92915050565b600082601f8301126120a8576120a7612e34565b5b81356120b8848260208601611ffd565b91505092915050565b6000813590506120d0816131e6565b92915050565b6000602082840312156120ec576120eb612e43565b5b60006120fa8482850161203f565b91505092915050565b6000806040838503121561211a57612119612e43565b5b60006121288582860161203f565b92505060206121398582860161203f565b9150509250929050565b60008060006060848603121561215c5761215b612e43565b5b600061216a8682870161203f565b935050602061217b8682870161203f565b925050604061218c868287016120c1565b9150509250925092565b600080600080608085870312156121b0576121af612e43565b5b60006121be8782880161203f565b94505060206121cf8782880161203f565b93505060406121e0878288016120c1565b925050606085013567ffffffffffffffff81111561220157612200612e3e565b5b61220d87828801612093565b91505092959194509250565b600080604083850312156122305761222f612e43565b5b600061223e8582860161203f565b925050602061224f85828601612054565b9150509250929050565b600080604083850312156122705761226f612e43565b5b600061227e8582860161203f565b925050602061228f858286016120c1565b9150509250929050565b6000602082840312156122af576122ae612e43565b5b60006122bd84828501612069565b91505092915050565b6000602082840312156122dc576122db612e43565b5b60006122ea8482850161207e565b91505092915050565b60006020828403121561230957612308612e43565b5b6000612317848285016120c1565b91505092915050565b6000806040838503121561233757612336612e43565b5b6000612345858286016120c1565b9250506020612356858286016120c1565b9150509250929050565b600061236c8383612650565b60208301905092915050565b61238181612be0565b82525050565b600061239282612a29565b61239c8185612a57565b93506123a783612a19565b8060005b838110156123d85781516123bf8882612360565b97506123ca83612a4a565b9250506001810190506123ab565b5085935050505092915050565b6123ee81612bf2565b82525050565b60006123ff82612a34565b6124098185612a68565b9350612419818560208601612c70565b61242281612e48565b840191505092915050565b600061243882612a3f565b6124428185612a79565b9350612452818560208601612c70565b61245b81612e48565b840191505092915050565b6000612473601d83612a79565b915061247e82612e59565b602082019050919050565b6000612496602683612a79565b91506124a182612e82565b604082019050919050565b60006124b9602383612a79565b91506124c482612ed1565b604082019050919050565b60006124dc601c83612a79565b91506124e782612f20565b602082019050919050565b60006124ff602383612a79565b915061250a82612f49565b604082019050919050565b6000612522602783612a79565b915061252d82612f98565b604082019050919050565b6000612545601483612a79565b915061255082612fe7565b602082019050919050565b6000612568603383612a79565b915061257382613010565b604082019050919050565b600061258b601b83612a79565b91506125968261305f565b602082019050919050565b60006125ae601d83612a79565b91506125b982613088565b602082019050919050565b60006125d1602083612a79565b91506125dc826130b1565b602082019050919050565b60006125f4601d83612a79565b91506125ff826130da565b602082019050919050565b6000612617602783612a79565b915061262282613103565b604082019050919050565b600061263a603083612a79565b915061264582613152565b604082019050919050565b61265981612c4a565b82525050565b61266881612c4a565b82525050565b60006020820190506126836000830184612378565b92915050565b600060808201905061269e6000830187612378565b6126ab6020830186612378565b6126b8604083018561265f565b81810360608301526126ca81846123f4565b905095945050505050565b600060a0820190506126ea6000830188612378565b6126f7602083018761265f565b612704604083018661265f565b612711606083018561265f565b61271e608083018461265f565b9695505050505050565b600060208201905081810360008301526127428184612387565b905092915050565b600060208201905061275f60008301846123e5565b92915050565b6000602082019050818103600083015261277f818461242d565b905092915050565b600060208201905081810360008301526127a081612466565b9050919050565b600060208201905081810360008301526127c081612489565b9050919050565b600060208201905081810360008301526127e0816124ac565b9050919050565b60006020820190508181036000830152612800816124cf565b9050919050565b60006020820190508181036000830152612820816124f2565b9050919050565b6000602082019050818103600083015261284081612515565b9050919050565b6000602082019050818103600083015261286081612538565b9050919050565b600060208201905081810360008301526128808161255b565b9050919050565b600060208201905081810360008301526128a08161257e565b9050919050565b600060208201905081810360008301526128c0816125a1565b9050919050565b600060208201905081810360008301526128e0816125c4565b9050919050565b60006020820190508181036000830152612900816125e7565b9050919050565b600060208201905081810360008301526129208161260a565b9050919050565b600060208201905081810360008301526129408161262d565b9050919050565b600060208201905061295c600083018461265f565b92915050565b600060c082019050612977600083018961265f565b612984602083018861265f565b612991604083018761265f565b61299e606083018661265f565b6129ab608083018561265f565b6129b860a0830184612378565b979650505050505050565b60006129cd6129de565b90506129d98282612ccd565b919050565b6000604051905090565b600067ffffffffffffffff821115612a0357612a02612e05565b5b612a0c82612e48565b9050602081019050919050565b6000819050602082019050919050565b600081519050919050565b600081519050919050565b600081519050919050565b6000602082019050919050565b600082825260208201905092915050565b600082825260208201905092915050565b600082825260208201905092915050565b6000612a9582612c4a565b9150612aa083612c4a565b9250827fffffffffffffffffffffffffffffffffffffffffffffffffffffffffffffffff03821115612ad557612ad4612d78565b5b828201905092915050565b6000612aeb82612c54565b9150612af683612c54565b92508260ff03821115612b0c57612b0b612d78565b5b828201905092915050565b6000612b2282612c4a565b9150612b2d83612c4a565b9250817fffffffffffffffffffffffffffffffffffffffffffffffffffffffffffffffff0483118215151615612b6657612b65612d78565b5b828202905092915050565b6000612b7c82612c54565b9150612b8783612c54565b92508160ff0483118215151615612ba157612ba0612d78565b5b828202905092915050565b6000612bb782612c4a565b9150612bc283612c4a565b925082821015612bd557612bd4612d78565b5b828203905092915050565b6000612beb82612c2a565b9050919050565b60008115159050919050565b60007fffffffff0000000000000000000000000000000000000000000000000000000082169050919050565b600073ffffffffffffffffffffffffffffffffffffffff82169050919050565b6000819050919050565b600060ff82169050919050565b82818337600083830152505050565b60005b83811015612c8e578082015181840152602081019050612c73565b83811115612c9d576000848401525b50505050565b6000612cae82612c4a565b91506000821415612cc257612cc1612d78565b5b600182039050919050565b612cd682612e48565b810181811067ffffffffffffffff82111715612cf557612cf4612e05565b5b80604052505050565b6000612d0982612c4a565b91507fffffffffffffffffffffffffffffffffffffffffffffffffffffffffffffffff821415612d3c57612d3b612d78565b5b600182019050919050565b6000612d5282612c4a565b9150612d5d83612c4a565b925082612d6d57612d6c612da7565b5b828206905092915050565b7f4e487b7100000000000000000000000000000000000000000000000000000000600052601160045260246000fd5b7f4e487b7100000000000000000000000000000000000000000000000000000000600052601260045260246000fd5b7f4e487b7100000000000000000000000000000000000000000000000000000000600052603260045260246000fd5b7f4e487b7100000000000000000000000000000000000000000000000000000000600052604160045260246000fd5b600080fd5b600080fd5b600080fd5b600080fd5b6000601f19601f8301169050919050565b7f546f6b656e206d757374206265206f776e65642062792073656e646572000000600082015250565b7f4f776e61626c653a206e6577206f776e657220697320746865207a65726f206160008201527f6464726573730000000000000000000000000000000000000000000000000000602082015250565b7f596f752063616e6e6f742073657420796f757273656c66206173206f7065726160008201527f746f720000000000000000000000000000000000000000000000000000000000602082015250565b7f43616e6e6f74207472616e7366657220746f2030206164647265737300000000600082015250565b7f43616e6e6f74207472616e7366657220746f20636f6e7472616374206164647260008201527f6573730000000000000000000000000000000000000000000000000000000000602082015250565b7f546f6b656e206d757374206265206f776e65642062792074686520616464726560008201527f73732066726f6d00000000000000000000000000000000000000000000000000602082015250565b7f546f6b656e20646f6573206e6f74206578697374000000000000000000000000600082015250565b7f596f7520617265206e6f7420746865206f776e6572206f7220746865206f706560008201527f7261746f72206f66207468697320746f6b656e00000000000000000000000000602082015250565b7f457665727920647261676f6e20636f73747320302e3035204554480000000000600082015250565b7f596f7520646f206e6f74206f776e207468652064616420647261676f6e000000600082015250565b7f4f776e61626c653a2063616c6c6572206973206e6f7420746865206f776e6572600082015250565b7f596f7520646f206e6f74206f776e20746865206d6f6d20647261676f6e000000600082015250565b7f436f6e747261637420646f6573206e6f7420737570706f72742045524337323160008201527f20746f6b656e7300000000000000000000000000000000000000000000000000602082015250565b7f546865206c696d6974206f662067656e65726174696f6e203020647261676f6e60008201527f732070657220757365722069733a203500000000000000000000000000000000602082015250565b6131aa81612be0565b81146131b557600080fd5b50565b6131c181612bf2565b81146131cc57600080fd5b50565b6131d881612bfe565b81146131e357600080fd5b50565b6131ef81612c4a565b81146131fa57600080fd5b5056fea264697066735822122063a7d38bc0bb710e0278de0f9ac6379233054f0019bd1157e05924c0a067377b64736f6c63430008060033",
  "immutableReferences": {},
  "source": "// SPDX-License-Identifier: UNLICENSED\r\n\r\npragma solidity ^0.8.6;\r\n\r\nimport \"./IERC721.sol\";\r\nimport \"./IERC721Receiver.sol\";\r\nimport \"@openzeppelin/contracts/access/Ownable.sol\";\r\n\r\ncontract Dragoncontract is IERC721, Ownable {\r\n\r\n  uint256 public constant gen0CreationLimit = 5;\r\n\r\n  string private constant nameOfToken = \"MyDragons\";\r\n  string private constant symbolOfToken = \"MD\";\r\n\r\n  bytes4 private constant ERC721VerificationNum = bytes4(keccak256(\"onERC721Received(address,address,uint256,bytes)\"));\r\n\r\n  bytes4 private constant interfaceIdERC721 = 0x80ac58cd;\r\n  bytes4 private constant interfaceIdERC165 = 0x01ffc9a7;\r\n\r\n  event Birth(\r\n    address owner,\r\n    uint256 dragonId,\r\n    uint256 genes,\r\n    uint256 dadId,\r\n    uint256 momId\r\n  );\r\n\r\n  struct Dragon {\r\n    uint256 genes;\r\n    uint64 birthTime;\r\n    uint32 dadId;\r\n    uint32 momId;\r\n    uint16 generation;\r\n  }\r\n\r\n  Dragon[] private dragons;\r\n\r\n  mapping(uint256 => address) private dragonOwners;\r\n  mapping(address => uint256) private tokenBalances;\r\n\r\n  mapping(uint256 => address) private tokenApprovedAddresses;\r\n  mapping(address => mapping(address => bool)) private operatorApproval;\r\n\r\n  uint256 public gen0Total;\r\n\r\n  constructor() {\r\n    _createDragon(type(uint256).max, 0, 0, 0, address(0));\r\n  }\r\n\r\n  function breed(uint256 _dadId, uint256 _momId) external {\r\n    require(_owns(msg.sender, _dadId), \"You do not own the dad dragon\");\r\n    require(_owns(msg.sender, _momId), \"You do not own the mom dragon\");\r\n\r\n    uint256 newDna = _mixDna(dragons[_dadId].genes, dragons[_momId].genes);\r\n    uint256 newDragonGen = _newGeneration(dragons[_dadId].generation, dragons[_momId].generation);\r\n\r\n    _createDragon(newDna, _dadId, _momId, newDragonGen, msg.sender);\r\n  }\r\n\r\n  function supportsInterface(bytes4 _interfaceId) external pure returns (bool) {\r\n    return (_interfaceId == interfaceIdERC721 || _interfaceId == interfaceIdERC165);\r\n  }\r\n\r\n  function getDragon(uint256 _tokenId) external view returns (\r\n    uint256 genes,\r\n    uint256 birthTime,\r\n    uint256 dadId,\r\n    uint256 momId,\r\n    uint256 generation,\r\n    address owner) {\r\n      require(_tokenId < dragons.length, \"Token does not exist\");\r\n      return (\r\n        dragons[_tokenId].genes,\r\n        dragons[_tokenId].birthTime,\r\n        dragons[_tokenId].dadId,\r\n        dragons[_tokenId].momId,\r\n        dragons[_tokenId].generation,\r\n        dragonOwners[_tokenId]\r\n      );\r\n    }\r\n\r\n    function allOwnedDragons() external view returns(uint256[] memory) {\r\n        uint256[] memory ownedDragons = new uint256[](tokenBalances[msg.sender]);\r\n        uint256 counter = 0;\r\n        for(uint256 i = 0; i < dragons.length; i++) {\r\n          if(dragonOwners[i] == msg.sender) {\r\n            ownedDragons[counter] = i;\r\n            counter++;\r\n          }\r\n        }\r\n        return ownedDragons;\r\n    }\r\n\r\n  function createDragonGen0(uint256 _genes) external payable {\r\n    require(tokenBalances[msg.sender] < gen0CreationLimit, \"The limit of generation 0 dragons per user is: 5\");\r\n    require(0.05 ether == msg.value, \"Every dragon costs 0.05 ETH\");\r\n\r\n    if(tokenBalances[msg.sender] < gen0CreationLimit) {\r\n      gen0Total++;\r\n      _createDragon(_genes, 0, 0, 0, msg.sender);\r\n      payable(_owner).transfer(msg.value);\r\n    }\r\n  }\r\n\r\n  function _createDragon(\r\n    uint256 _genes,\r\n    uint256 _dadId,\r\n    uint256 _momId,\r\n    uint256 _generation,\r\n    address _owner\r\n  ) private returns (uint256) {\r\n      Dragon memory _dragon = Dragon(_genes, uint64(block.timestamp), uint32(_dadId), uint32(_momId), uint16(_generation));\r\n\r\n      dragons.push(_dragon);\r\n      uint256 newDragonId = dragons.length - 1;\r\n\r\n      emit Birth(_owner, newDragonId, _genes, _momId, _dadId);\r\n\r\n      _transfer(address(0), _owner, newDragonId);\r\n\r\n      return newDragonId;\r\n  }\r\n\r\n  function name() override external pure returns (string memory tokenName) {\r\n    return nameOfToken;\r\n  }\r\n\r\n  function symbol() override external pure returns (string memory tokenSymbol) {\r\n    return symbolOfToken;\r\n  }\r\n\r\n  function balanceOf(address _owner) override external view returns (uint256 balance) {\r\n    return tokenBalances[_owner];\r\n  }\r\n\r\n  function totalSupply() override external view returns (uint256 total) {\r\n    return dragons.length;\r\n  }\r\n\r\n  function ownerOf(uint256 _tokenId) override external view returns (address owner) {\r\n    require(_tokenId < dragons.length, \"Token does not exist\");\r\n    return dragonOwners[_tokenId];\r\n  }\r\n\r\n  function transfer(address _to, uint256 _tokenId) override external {\r\n    require(_to != address(0), \"Cannot transfer to 0 address\");\r\n    require(_to != address(this), \"Cannot transfer to contract address\");\r\n    require(_owns(msg.sender, _tokenId), \"Token must be owned by sender\");\r\n\r\n    _transfer(msg.sender, _to, _tokenId);\r\n  }\r\n\r\n  function _transfer(address _from, address _to, uint256 _tokenId) private {\r\n    tokenBalances[_to]++;\r\n\r\n    dragonOwners[_tokenId] = _to;\r\n\r\n    if (_from != address(0)) {\r\n      tokenBalances[_from]--;\r\n      delete tokenApprovedAddresses[_tokenId];\r\n    }\r\n\r\n    emit Transfer(_from, _to, _tokenId);\r\n  }\r\n\r\n  function approve(address _approved, uint256 _tokenId) override external {\r\n    require(_owns(msg.sender, _tokenId) || operatorApproval[dragonOwners[_tokenId]][msg.sender], \"You are not the owner or the operator of this token\");\r\n\r\n    tokenApprovedAddresses[_tokenId] = _approved;\r\n\r\n    emit Approval(msg.sender, _approved, _tokenId);\r\n  }\r\n\r\n  function setApprovalForAll(address _operator, bool _approved) override external {\r\n    require(_operator != msg.sender, \"You cannot set yourself as operator\");\r\n\r\n    operatorApproval[msg.sender][_operator] = _approved;\r\n\r\n    emit ApprovalForAll(msg.sender, _operator, _approved);\r\n  }\r\n\r\n  function getApproved(uint256 _tokenId) override external view returns (address) {\r\n    require(_tokenId < dragons.length, \"Token does not exist\");\r\n\r\n    return tokenApprovedAddresses[_tokenId];\r\n  }\r\n\r\n  function isApprovedForAll(address _owner, address _operator) override public view returns (bool) {\r\n    return operatorApproval[_owner][_operator];\r\n  }\r\n\r\n  function safeTransferFrom(address _from, address _to, uint256 _tokenId, bytes memory _data) override public {\r\n    require(_transferFromRequire(msg.sender, _from, _to, _tokenId));\r\n\r\n    _safeTransfer(_from, _to, _tokenId, _data);\r\n  }\r\n\r\n  function safeTransferFrom(address _from, address _to, uint256 _tokenId) override external {\r\n    safeTransferFrom(_from, _to, _tokenId, \"\");\r\n  }\r\n\r\n  function _safeTransfer(address _from, address _to, uint256 _tokenId, bytes memory _data) private {\r\n    _transfer(_from, _to, _tokenId);\r\n\r\n    require(_checkERC721Support(_from, _to, _tokenId, _data), \"Contract does not support ERC721 tokens\");\r\n  }\r\n\r\n  function transferFrom(address _from, address _to, uint256 _tokenId) override external {\r\n    require(_transferFromRequire(msg.sender, _from, _to, _tokenId));\r\n\r\n    _transfer(_from, _to, _tokenId);\r\n  }\r\n\r\n  function _isApproved(address _claimant, uint256 _tokenId) private view returns (bool) {\r\n    return _claimant == tokenApprovedAddresses[_tokenId];\r\n  }\r\n\r\n  function _checkERC721Support(address _from, address _to, uint256 _tokenId, bytes memory _data) private returns (bool) {\r\n    if(!_isContract(_to)) {\r\n      return true;\r\n    }\r\n    else {\r\n      bytes4 returnData = IERC721Receiver(_to).onERC721Received(msg.sender, _from, _tokenId, _data);\r\n      return returnData == ERC721VerificationNum;\r\n    }\r\n  }\r\n\r\n  function _isContract(address _to) private view returns (bool) {\r\n    uint32 size;\r\n    assembly{\r\n      size := extcodesize(_to)\r\n    }\r\n    return size > 0;\r\n  }\r\n\r\n  function _transferFromRequire(address _spender, address _from, address _to, uint256 _tokenId) private view returns (bool) {\r\n    require(_to != address(0), \"Cannot transfer to 0 address\");\r\n    require(_tokenId < dragons.length, \"Token does not exist\");\r\n    require(_owns(_from, _tokenId), \"Token must be owned by the address from\");\r\n\r\n    return _spender == _from || _isApproved(_spender, _tokenId) || isApprovedForAll(_from, _spender);\r\n  }\r\n\r\n  function _mixDna(uint256 _dadDna, uint256 _momDna) private view returns (uint256) {\r\n    uint256[8] memory geneArray;\r\n\r\n    uint8 random = uint8(block.timestamp % 256);\r\n    uint8 randomIndex = uint8(block.timestamp % 8);\r\n    uint8 randomEyes = uint8((block.timestamp % 7) + 1);\r\n    uint8 HornOrAnimation = uint8((block.timestamp % 5) + 1);\r\n    uint8 randomColor = uint8((block.timestamp % 82) + 10);\r\n\r\n    uint256 i;\r\n    uint8 index = 7;\r\n\r\n    for(i = 1; i <= 128; i*=2) {\r\n      unchecked {\r\n        geneArray[index] = random & i != 0 ? _momDna % 100 : _dadDna % 100;\r\n\r\n        _momDna /= 100;\r\n        _dadDna /= 100;\r\n\r\n        index--;\r\n      }\r\n    }\r\n\r\n    if(randomIndex == 4) {\r\n      geneArray[randomIndex] = (randomEyes * 10) + HornOrAnimation;\r\n    }\r\n    else if(randomIndex == 7) {\r\n      geneArray[randomIndex] = (HornOrAnimation * 10) + 1;\r\n    }\r\n    else geneArray[randomIndex] = randomColor;\r\n\r\n    uint256 newDna;\r\n\r\n    for(i = 0; i < 8; i++) {\r\n      newDna += geneArray[i];\r\n      if(i != 7) {\r\n        newDna *= 100;\r\n      }\r\n    }\r\n    return newDna;\r\n  }\r\n\r\n  function _newGeneration(uint256 _dadGen, uint256 _momGen) private pure returns (uint256) {\r\n    return _dadGen >= _momGen ? _dadGen + 1 : _momGen + 1;\r\n  }\r\n\r\n  function _owns(address _claimant, uint256 _tokenId) public view returns (bool) {\r\n    return _claimant == dragonOwners[_tokenId];\r\n  }\r\n}\r\n",
  "sourcePath": "/Users/tahadhailey/Downloads/My-Dragons/contracts/Dragoncontract.sol",
  "compiler": {
    "name": "solc",
    "version": "0.8.6+commit.11564f7e.Emscripten.clang"
  },
  "schemaVersion": "3.4.10",
  "updatedAt": "2022-09-26T06:59:53.448Z",
  "devdoc": {
    "kind": "dev",
    "methods": {
      "approve(address,uint256)": {
        "details": "The zero address indicates there is no approved address.  Throws unless `msg.sender` is the current NFT owner, or an authorized  operator of the current owner.",
        "params": {
          "_approved": "The new approved NFT controller",
          "_tokenId": "The NFT to approve"
        }
      },
      "balanceOf(address)": {
        "details": "Returns the number of tokens in ``owner``'s account."
      },
      "getApproved(uint256)": {
        "details": "Throws if `_tokenId` is not a valid NFT.",
        "params": {
          "_tokenId": "The NFT to find the approved address for"
        },
        "returns": {
          "_0": "The approved address for this NFT, or the zero address if there is none"
        }
      },
      "isApprovedForAll(address,address)": {
        "params": {
          "_operator": "The address that acts on behalf of the owner",
          "_owner": "The address that owns the NFTs"
        },
        "returns": {
          "_0": "True if `_operator` is an approved operator for `_owner`, false otherwise"
        }
      },
      "owner()": {
        "details": "Returns the address of the current owner."
      },
      "ownerOf(uint256)": {
        "details": "Returns the owner of the `tokenId` token. Requirements: - `tokenId` must exist."
      },
      "renounceOwnership()": {
        "details": "Leaves the contract without owner. It will not be possible to call `onlyOwner` functions anymore. Can only be called by the current owner. NOTE: Renouncing ownership will leave the contract without an owner, thereby removing any functionality that is only available to the owner."
      },
      "safeTransferFrom(address,address,uint256)": {
        "details": "This works identically to the other function with an extra data parameter,  except this function just sets data to \"\".",
        "params": {
          "_from": "The current owner of the NFT",
          "_to": "The new owner",
          "_tokenId": "The NFT to transfer"
        }
      },
      "setApprovalForAll(address,bool)": {
        "details": "Emits the ApprovalForAll event. The contract MUST allow  multiple operators per owner.",
        "params": {
          "_approved": "True if the operator is approved, false to revoke approval",
          "_operator": "Address to add to the set of authorized operators"
        }
      },
      "transferFrom(address,address,uint256)": {
        "details": "Throws unless `msg.sender` is the current owner, an authorized  operator, or the approved address for this NFT. Throws if `_from` is  not the current owner. Throws if `_to` is the zero address. Throws if  `_tokenId` is not a valid NFT.",
        "params": {
          "_from": "The current owner of the NFT",
          "_to": "The new owner",
          "_tokenId": "The NFT to transfer"
        }
      },
      "transferOwnership(address)": {
        "details": "Transfers ownership of the contract to a new account (`newOwner`). Can only be called by the current owner."
      }
    },
    "version": 1
  },
  "userdoc": {
    "kind": "user",
    "methods": {
      "approve(address,uint256)": {
        "notice": "Change or reaffirm the approved address for an NFT"
      },
      "getApproved(uint256)": {
        "notice": "Get the approved address for a single NFT"
      },
      "isApprovedForAll(address,address)": {
        "notice": "Query if an address is an authorized operator for another address"
      },
      "safeTransferFrom(address,address,uint256)": {
        "notice": "Transfers the ownership of an NFT from one address to another address"
      },
      "setApprovalForAll(address,bool)": {
        "notice": "Enable or disable approval for a third party (\"operator\") to manage  all of `msg.sender`'s assets"
      },
      "transferFrom(address,address,uint256)": {
        "notice": "Transfer ownership of an NFT -- THE CALLER IS RESPONSIBLE  TO CONFIRM THAT `_to` IS CAPABLE OF RECEIVING NFTS OR ELSE  THEY MAY BE PERMANENTLY LOST"
      }
    },
    "version": 1
  }
}